:10000000A078FF1F0D190000AD170000AF1700000A
:10001000AF170000AF170000AF170000000000008E
:10002000000000000000000000000000AF1700000A
:10003000AF17000000000000AF170000AF1700006E
:100040001D1A0000251A00002D1A0000351A0000A4
:100050003D1A0000451A00004D1A0000551A000014
:100060005D1A0000651A00006D1A0000751A000084
:100070007D1A0000851A00008D1A0000951A0000F4
:100080009D1A0000711B0000711B0000711B000015
:10009000711B0000711B0000711B0000711B000030
:1000A000A51A0000AD1A0000B51A0000BD1A000024
:1000B000C51A0000CD1A0000711B0000D51A0000FF
:1000C000DD1A0000E51A0000ED1A0000F51A000024
:1000D000FD1A000005180000051B0000711B000040
:1000E000711B0000711B0000711B0000711B0000E0
:1000F000711B0000711B0000711B0000711B0000D0
:10010000F9170000711B0000711B0000711B00003B
:10011000711B0000711B0000711B0000711B0000AF
:10012000711B0000711B0000711B0000B117000063
:10013000711B0000C9170000711B0000711B00003B
:10014000711B00000D1B000017180000151B00009C
:10015000711B0000711B0000711B0000711B00006F
:10016000711B0000711B00001D1B0000251B0000FF
:10017000251B0000251B0000251B0000251B00007F
:10018000251B00002D1B0000351B00003D1B00003F
:10019000451B00004D1B0000551B0000711B00009B
:1001A000711B0000711B0000711B00005D1B000033
:1001B000711B0000711B0000651B0000651B000027
:1001C000651B0000651B0000651B0000651B00002F
:1001D000711B0000711B0000711B0000711B0000EF
:1001E000711B0000711B0000711B0000711B0000DF
:1001F000711B0000711B0000711B0000711B0000CF
:1003F000711B0000711B0000711B0000FFFFFFFF5D
:10040000FFFFFFFFFFFFFFFFFFFFFFFFFEFFFFFFFD
:100410002DE9FD4F96B088465FF0000B06A8DFF887
:100420007014402200F046FA02A8DFF868140A6847
:100430000260002001905FF0FF349DF85800002812
:1004400045D1DFF85404016851F4805101604FF444
:100450000071452000F08EFA4FF40071462000F044
:1004600089FA4FF40071472000F084FA5FEAC870FF
:1004700004D54FF40071442000F07CFA5FEA8870E4
:1004800004D54FF40071432000F074FA5FEA48701D
:1004900004D54FF40071422000F06CFA5FEA087056
:1004A00004D54FF40071412000F064FA5FEAC8609F
:1004B00004D54FF40071402000F05CFA5FEA8860D8
:1004C0006BD54FF44071372000F054FA65E09DF889
:1004D0005800012835D1DFF8C003016851F40051FC
:1004E00001604FF400712B2000F044FA4FF40071CA
:1004F000302000F03FFA4FF40071312000F03AFA5A
:100500005FEAC87004D54FF400712A2000F032FA77
:100510005FEA887004D54FF40071802000F02AFA59
:100520005FEA487004D54FF40071852000F022FA8C
:100530005FEA087031D54FF40071862000F01AFA96
:100540002BE09DF85800022825D1DFF85003016800
:1005500051F4805101604FF40071352000F00AFA27
:100560004FF40071362000F005FA4FF40071372087
:1005700000F000FA5FEAC87004D54FF4007134202F
:1005800000F0F8F95FEA887007D54FF400716F202A
:1005900000F0F0F901E00020DEE040F60140DFF875
:1005A00000139DF8582051F822100860DFF8F4027B
:1005B000DFF8EC129DF8582051F82210C8629DF81F
:1005C0005C00002840F0B280DFF8DC02DFF8D012D7
:1005D0009DF8582051F82210086000F001FADFF869
:1005E000CC020168DFF8C80241431898B1FBF0F073
:1005F0000590002081464846C0B2102828DA002025
:1006000082465046C0B204281DDA06A84946C9B23F
:1006100050F8211002A85246D2B2805C41430E002D
:100620000598301A00F016FA0500A54208D22C00F1
:100630004846C0B201905046C0B20390002C02D090
:100640001AF1010ADDE7002C02D019F10109D2E705
:10065000DFF85C12DFF8542213684B4306A8DDF87C
:1006600004C050F82CC002A8DDF80CE010F80E0011
:1006700000FB0CFCB3FBFCF00490106801FB00F1E4
:100680000498B1FBF0FB5FEA5B0B5FF0FF30040006
:100690000F208DF8010003208DF8020000200700D4
:1006A0003800C0B2102824DA0121781C81400E00E5
:1006B000BBFBF6F0401E40088DF800009DF80000DE
:1006C000042814DA9DF800004000401C4643B6EBB5
:1006D0000B0000F0BFF90500A54208D22C008DF8F0
:1006E00001709DF800008DF80200002C01D07F1CE5
:1006F000D6E70398000410F44030019911F00F017F
:1007000008439DF80110090311F4704108439DF856
:100710000210890511F44001084350F0605060490F
:100720009DF8582051F82210C86007E05FF078501B
:100730005B499DF8582051F82210C86058489DF830
:10074000581050F821100968490849009DF85820B0
:1007500050F822000160049819B0BDE8F08FF0B4A1
:10076000049D00244E4E4F4F84465FFA8CFC56F891
:100770002CC0CCF82C700700FFB256F827703F68E9
:1007800057F4406784465FFA8CFC56F82CC0CCF8CE
:1007900000700700FFB256F82770FF6ABF03E1D46C
:1007A00000276C1EA74236D28C465FFA8CFC5FEAAB
:1007B0000C4C1CF47C1CD45D54EA0C0C5CF0004C1A
:1007C0000400E4B256F82440C4F834C00400E4B293
:1007D00056F82440E46AA403F8D5002B06D00400A0
:1007E000E4B256F82440A46BDC5504E00400E4B203
:1007F00056F82440A46B0400E4B256F82440E46A9E
:1008000054F4003484465FFA8CFC56F82CC0CCF8C3
:100810002C407F1CC5E78C465FFA8CFC5FEA0C4CD1
:100820001CF47C1CD45D54EA0C0C5CF0006C0400DD
:10083000E4B256F82440C4F834C00400E4B256F8D8
:100840002440E46AE400F8D50400E4B256F82440F9
:10085000E46AA403F8D5002B06D00400E4B256F8ED
:100860002440A46BDC5504E00400E4B256F82440B4
:10087000A46B0400E4B256F82440E46A54F4003453
:1008800084465FFA8CFC56F82C60F462F0BC70472A
:10089000A01800006C1B00003C8004403080044025
:1008A0005800FF1F00000A1A00003F806C00FF1F65
:1008B00040420F00103A07D330B4B1E83810103A74
:1008C000A0E83810F9D230BC530724BFB1E80810B3
:1008D000A0E8081044BF51F8043B40F8043BD2079D
:1008E00024BF31F8022B20F8022B44BF0B78037091
:1008F0007047121F17D35B0009D151F8043B20F851
:10090000023B1B0C121F20F8023BF6D20BE051F801
:10091000043B00F8013B1B0A20F8023B1B0C121F92
:1009200000F8013BF3D238BF121D521E24BF11F84C
:10093000013B00F8013BF8D8704730B4002513E0C4
:1009400050F8042BD30744BFA9F101039A18091FDB
:10095000042942F8045BFAD213468C0744BF158081
:100960009B1CC90748BF1D7050F8041B0029E7D124
:1009700030BC7047F0B40200D2B2520910F01F032D
:10098000144C25684FF400769640354325600124C9
:10099000114D14FA03F61700FFB255F82770C7F887
:1009A000A0601600F6B255F826501E00F6B245F8C3
:1009B00026100A4D1600F6B255F8266076699C405E
:1009C00036EA04041600F6B255F826506C61F0BC05
:1009D0007047000038800440E8190000FC1900004E
:1009E00080B5164916480278D2B212F01F021032B2
:1009F000322042430A600868124A1278D2B212F0DA
:100A00000702521CB0FBF2F0400808600E480A686A
:100A100003681B0F5B1CB2FBF3F20C4B1A600968F6
:100A20000068C0F30360401CB1FBF0F008490860A7
:100A30005FF4E131022000F01DF801BD6400FF1FEA
:100A40000540064004400640448004406800FF1F03
:100A50006C00FF1F002848BF40427047012210F081
:100A60001F018A40DFF8801203005BB25B0941F886
:100A700023207047F8B504000D002000C0B2002804
:100A800006D0022825D014D3042842D031D350E018
:100A9000DFF85802016851F4806101604FF4407141
:100AA0006620FFF767FF4FF440716720FFF762FF92
:100AB00040E08E48016851F4006101604FF44071DC
:100AC0008120FFF757FF4FF440718020FFF752FF5E
:100AD00030E08648016851F4805101604FF4407164
:100AE0006320FFF747FF4FF440716220FFF742FF9A
:100AF00020E07E48016851F4005101604FF44071DC
:100B00005020FFF737FF4FF440715120FFF732FFBD
:100B100010E07748016851F4806101604FF4407142
:100B20004E20FFF727FF4FF440714F20FFF722FFC1
:100B300000E08BE06F492000C0B251F82000C0787F
:100B400010F0F3002200D2B251F82220D070200021
:100B5000C0B251F8200080782200D2B251F8222091
:100B600090702000C0B2002803D02000C0B201283D
:100B700004D1614802686148424303E0604802686A
:100B80005E4842432801B2FBF0F39BB2B3F5005F2D
:100B900002D341F6FF7003005000B0FBF5F6B6EB50
:100BA0004316202E01D31F2006002000C0B251F8AA
:100BB0002000007810F0E0002700FFB251F8277005
:100BC00038702000C0B251F8200000781F003F0AA2
:100BD00017F01F0738432700FFB251F8277038700D
:100BE0002000C0B251F8200043702000C0B251F87C
:100BF0002000807A10F0E0002700FFB251F8277043
:100C0000B8722000C0B251F82000877A16F01F0099
:100C100007432000C0B251F8200087722000C0B204
:100C200051F82000007C50F088002700FFB251F8F6
:100C3000277038742000C0B251F82000C07850F0FE
:100C40000C002700FFB251F82710C870F1BD294AE7
:100C50000300DBB252F823301B791B06F7D50300E3
:100C6000DBB252F82320D171704770B504000D003B
:100C700016003000461E002806D029782000C0B299
:100C8000FFF7E5FF6D1CF4E770BD1A4A0300DBB205
:100C900052F823301B799B06F7D50300DBB252F8DC
:100CA0002320D2790A70704710B504001148210042
:100CB000C9B250F82110C97851F020012200D2B2F7
:100CC00050F82200C1702000C0B2042807DA2000CA
:100CD000C0B240001F3040B2FFF7C0FE02E0422029
:100CE000FFF7BCFE10BD000000E100E034800440CE
:100CF000288004404400FF1F6800FF1F40420F008F
:100D00006C00FF1F1CB504008DF80440012000900A
:100D100001AB01AA01210020FFF721FD9DF804008D
:100D200016BD80B501220121412000F0D1F9012238
:100D30000121422000F0CCF9DFF88C3300220121A0
:100D40000020FFF765FB01BD10B50400DFF8740358
:100D50008168096831F00201806801602000C0B23A
:100D6000FFF7D0FF10BD10B50400DFF8580381680D
:100D7000096851F00201806801602000C0B2FFF7ED
:100D8000C1FF10BD10B50400200080B2000AC0B23F
:100D9000FFF7E9FF2000C0B2FFF7E5FF10BD38B54F
:100DA00004000D002000C0B2FFF7CEFF280080B283
:100DB000FFF7E8FF31BD10B5DFF80843A068006811
:100DC00030F00400A1680860642000F015FAA06803
:100DD000006850F00400A1680860322000F00CFAAE
:100DE00010BD80B5FFF79DFFFFF7E5FF0220FFF77D
:100DF000ABFF4FF48070FFF7C5FF1C210120FFF708
:100E0000CEFF41F238010320FFF7C9FF0820FFF7AA
:100E10009BFF40F60800FFF7B5FF0B20FFF794FF9C
:100E20004FF48850FFF7AEFF0C20FFF78DFF002036
:100E3000FFF7A8FF0F20FFF787FF41F20140FFF700
:100E4000A1FF1520FFF780FF0020FFF79BFF202068
:100E5000FFF77AFF0020FFF795FF2120FFF774FFCF
:100E60000020FFF78FFF322000F0C6F91020FFF7B7
:100E70006BFF4FF40060FFF785FF1120FFF764FF61
:100E800041F63F70FFF77EFF322000F0B5F91220E7
:100E9000FFF75AFF40F22110FFF774FF1320FFF70E
:100EA00053FF6F20FFF76EFF1420FFF74DFF44F252
:100EB0004930FFF767FF3020FFF746FF0020FFF7BC
:100EC00061FF3120FFF740FFDB20FFF75BFF32209F
:100ED000FFF73AFF0020FFF755FF3320FFF734FFFD
:100EE0000020FFF74FFF3420FFF72EFFDB20FFF736
:100EF00049FF3520FFF728FF0020FFF743FF36208A
:100F0000FFF722FFAF20FFF73DFF3720FFF71CFF61
:100F10000020FFF737FF3820FFF716FFDB20FFF731
:100F200031FF3920FFF710FF0020FFF72BFF502083
:100F3000FFF70AFF0120FFF725FF5120FFF704FF0D
:100F400042F20B00FFF71EFF5220FFF7FDFE0020CC
:100F5000FFF718FF5320FFF7F7FE40F20440FFF7BA
:100F600011FF5420FFF7F0FE40F60C40FFF70AFF98
:100F70005520FFF7E9FE0C20FFF704FF5620FFF78E
:100F8000E3FE40F20110FFF7FDFE5720FFF7DCFE05
:100F90004FF48060FFF7F6FE5820FFF7D5FE41F2D0
:100FA0000810FFF7EFFE5920FFF7CEFE40F20C507D
:100FB000FFF7E8FE322000F01FF90720FFF7C4FE1C
:100FC00041F21700FFF7DEFE2220FFF7BDFE4FF6CD
:100FD000FF7000F02EF801BDF8B504000D001600FA
:100FE0001F003100C9B289B23820FFF7D8FE2100B6
:100FF000C9B289B23920FFF7D2FE3900C9B289B22D
:101000003620FFF7CCFE2900C9B289B23720FFF79E
:10101000C6FE2100C9B289B22120FFF7C0FE290017
:10102000C9B289B22020FFF7BAFE2220FFF78CFE5A
:10103000F1BD38B50400AF23DB2200210020FFF70B
:10104000CBFFDFF880008168096851F002018068F9
:101050000160002549F2407085420BD2200080B229
:10106000000AC0B2FFF74EFE2000C0B2FFF74AFEF2
:101070006D1CEFE731BD38B50025BC2D20DA782393
:1010800028000200D2B200212800C0B2FFF7A4FF5E
:1010900000200400782C11DA0C48BC2101FB04F17B
:1010A0000844405D242804DB4FF6FF70FFF76AFE1A
:1010B00002E00020FFF766FE641CEBE76D1CDCE736
:1010C00031BD0000FC190000C00E16027400FF1FA5
:1010D000F0B503001C00E4B2640913F01F053B489F
:1010E00006684FF40077A7403E4306603848260064
:1010F000F6B250F826602F00FFB2A4465FFA8CFCCF
:1011000050F82CC0AE465FFA8EFE5CF82EC03CF460
:10111000E06C46F827C02600F6B250F826602F0093
:10112000FFB2A4465FFA8CFC50F82C00AC465FFA84
:101130008CFC50F82C0050F4807046F82700080012
:10114000C0B200280ED023482600F6B250F8266020
:1011500076690127AF403E432700FFB250F82700D1
:1011600046610DE01B482600F6B250F8266076690D
:101170000127AF40BE432700FFB250F82700466169
:101180000800C0B2002820D01000C0B200280ED045
:1011900010482600F6B250F8266036680127AF40A6
:1011A0003E432700FFB250F8270006600DE00948D3
:1011B0002600F6B250F8266036680127AF40BE43DD
:1011C0002700FFB250F827000660F0BD38800440C9
:1011D000E8190000FC19000000280CD00E4900227C
:1011E0000A600E4A106000220D4B1A6005220A6048
:1011F0000A68D203FCD5704710B504002000441ED5
:10120000002807D0074800684FF47A714843FFF779
:10121000E3FFF3E710BD000010E000E014E000E0A1
:1012200018E000E06800FF1F012210F01F018A4053
:101230008E4903005BB25B0941F82320704701220D
:1012400010F01F018A408A4903005BB25B0941F834
:101250002320704710B4020052B2002A09D50A01B7
:10126000844B040064B214F00F04234403F8042CEC
:1012700004E00A01804B040064B21A5510BC7047A8
:1012800070B47E4C256801268640354325607C4C31
:101290001D006D046D0C0600F6B276012644F58241
:1012A0001D006D046D0C0600F6B276012644F58330
:1012B0000500EDB26D0161510500EDB26D012C44E8
:1012C0002261704C256855F00105256070BC70479F
:1012D00038B56D4C6D4D207805EB00010320FFF70C
:1012E000D4FC2078401C20702078012804D1287874
:1012F000A52801D0002020702078032804D10020E8
:10130000207001206249087031BD7CB5002528009D
:1013100080B2082827DAA5208DF800006846F12160
:1013200041705C4E290089B236F821100C00210072
:1013300089B2090A8170C470042269460320FFF74C
:1013400094FC534908780028FBD0002008704F48CF
:101350004178807850EA0120290089B206EB8101AA
:1013600048806D1CD3E773BD7FB54FF41651032041
:10137000FFF780FB0320FFF797FC4FF47A70FFF72D
:101380003BFF434E002030700025280080B2092822
:101390001EDAA5208DF80C003F4803A92A0092B25E
:1013A00030F822204A702A0092B200EB8200408876
:1013B0000400200080B2000A8870CC70042203A9C7
:1013C0000320FFF752FC0220FFF716FF6D1CDCE73D
:1013D00030780028FCD0002030702C484178FF295C
:1013E000FBD18078FF28F8D1FFF78FFF72B601207C
:1013F000029045F620000190002000904323274AE8
:101400002749002000F054F826494320FFF7B2FA9C
:101410001C4E30684008400030601848016851F0A8
:10142000010101600020FFF7FFFE306850F001006D
:1014300030603D20FFF703FF1B495220FFF79AFA67
:1014400001213D20FFF706FF3D20FFF7EDFE62B6CC
:101450007FBD80B545F62003104A11490020FFF7F3
:101460000FFF01BD012011490870704700E100E045
:1014700080E100E018ED00E000E400E0248000409E
:10148000009000400C8000409858FF1F9458FF1FA8
:101490007000FF1F2400FF1F0000FF1F7400FF1FCC
:1014A00091F00F400201010002010A009958FF1F4C
:1014B0002DE9F74F05000E001F000C9CDDF834806D
:1014C0005FF001095FF0000A3000800940018DF8EB
:1014D00000005046C0B2002806D05FFA89F95FEAE2
:1014E0004909BAF1010AF4E76A48016851F00201BA
:1014F00001606948016851F00201016067480021FC
:101500002A00D2B2520181502900C9B24901465085
:1015100000212A00D2B252010244116102992A002C
:10152000D2B252010244116100212A00D2B252010A
:101530000244918000212A00D2B2520102449180DB
:1015400000212A00D2B25201024491824946C9B216
:101550002A00D2B252010244918200212A00D2B262
:1015600052010244D1802100C9B2090211F4E061A4
:101570002200D2B212F0070211432A00D2B2520165
:101580000244D18041464904490C2A00D2B252019A
:101590000244D18241464904490C2A00D2B2520188
:1015A0000244D1833E490A6832F080020A6049460B
:1015B000C9B22A00D2B252010244916000212A002D
:1015C000D2B252010244D1600E99C90702D4D8F1B7
:1015D000000100E000212A00D2B2520102449161D0
:1015E00000212A00D2B25201024491834CF20A0136
:1015F0002A00D2B252010244918300212A00D2B2C1
:1016000052011044C1603800C0B24009313050F07E
:10161000800024492A00D2B2885423493800C0B23D
:10162000FFF7A8F93000103810F03F00C0B2C0003A
:101630008DF802009DF800B09DF8020010EB0B0B36
:101640005FFA89F91BEBC900401E8DF801009DF877
:1016500001005946C9B288420ED3002200215846E3
:10166000C0B2FFF735FD4FF481715846C0B2FFF7A5
:1016700081F91BF1010BEAE70C4901220B6812FA10
:1016800005F083430B600A480168AA400A430260E0
:10169000BDE8F78F408004403C800440009000404B
:1016A0000080004000100240000101000C8000405A
:1016B0002480004032484CF2205101804DF6281120
:1016C00001804FF4E9702F49088070475FF09372F2
:1016D000042054212C4B1A602C4B18702C4B197081
:1016E0007047F8B55FF0FF30274908602948017856
:1016F00011F0FD010170017851F020010170264CBC
:10170000BA2020702548017811F01F01017020488F
:10171000017811F0BF010170214D2878C006FBD47B
:10172000287810F00C000828FAD11E4F3E6838685F
:1017300050F47F003860FFF7C9FF3E6028788006CC
:10174000FCD528784006FCD51A202070287810F0A7
:101750000C000C28FAD128784006FCD5F1BD80B5E4
:101760001148016851F470010160FFF7A3FFFFF712
:10177000B8FF012201210420FFF7AAFC01BD0000EF
:101780000E200540002005404480044004400640EF
:101790000540064001400640004006400340064028
:1017A0000640064000F0014088ED00E07047FEE78B
:1017B00000201B490A68C240D20704D50A680123E9
:1017C00083401A430A60704710B503241548016826
:1017D000E140C90706D501680122A240114301601A
:1017E000FFF737FE10BD80B50F48016851F00101C9
:1017F0000160FFF737FE01BD0C48016851F001019F
:101800000160704710B50A4C2078800601D5FFF7BB
:101810005FFD207810BD0748017800787047000010
:10182000A0900440A0B00440248000400C7103400C
:1018300004D0064004A00E40012210F01F018A408F
:10184000144903005BB25B0941F823207047012271
:1018500010F01F018A40104903005BB25B0941F898
:101860002320704710B5FFF7BBF8FFF7BAFAFFF770
:101870007BFD62B6094C20780028FBD03D20FFF7A5
:10188000E6FFFFF7F8FB3D20FFF7D6FF00202070B2
:10189000F0E7000000E100E080E100E09958FF1F60
:1018A0000200000004000000060000000800000024
:1018B0001000000020000000400000008000000038
:1018C0000001000000020000000400000008000009
:1018D0000010000000200000004000000080000018
:1018E00030B450F8041B79B10268436802440830F0
:1018F000DC0744BFA9F10104E31852F8045B43F884
:10190000045B091FF9D1ECE730BC704772B605489B
:10191000054901600A6882F308880448804762B676
:101920000348004708ED00E0000000005F170000DA
:10193000111A000010B5074979441831064C7C444F
:10194000163404E00A68081D114488470146A14284
:10195000F8D110BD2C0000004C0000004EF688515C
:10196000CEF20001086840F470000860BFF34F8FAA
:10197000BFF36F8F4FF00070E1EE100A7047000068
:10198000BBEFFFFF285800007400FF1F000000009D
:1019900051FFFFFF74000000DC0100000000FF1F8A
:1019A000000000000120C046002801D0FFF7C2FF60
:1019B000AFF300800020AFF30080FFF753FF00F08B
:1019C00000F800F001B800000746384600F002F8C1
:1019D000FBE7000080B5AFF30080024A1100182039
:1019E000ABBEFBE7260002000090044000A00440CC
:1019F00000B0044000C0044000D0044000F00F409C
:101A000040F00F4080F00F40C0F00F4000F10F4059
:101A1000AFF30080FFF7A2FFFFF7C4FF00480047C5
:101A2000E717000000480047711B0000004800470E
:101A3000711B000000480047711B00000048004770
:101A4000711B000000480047711B00000048004760
:101A5000711B000000480047711B00000048004750
:101A6000711B000000480047711B00000048004740
:101A7000711B000000480047711B00000048004730
:101A8000711B000000480047711B00000048004720
:101A9000711B000000480047711B00000048004710
:101AA000711B000000480047711B00000048004700
:101AB000711B000000480047711B000000480047F0
:101AC000711B000000480047711B000000480047E0
:101AD000711B000000480047711B000000480047D0
:101AE000711B000000480047711B000000480047C0
:101AF000711B000000480047711B000000480047B0
:101B0000711B000000480047711B0000004800479F
:101B1000711B000000480047711B0000004800478F
:101B2000711B000000480047711B0000004800477F
:101B3000711B000000480047711B0000004800476F
:101B4000711B000000480047711B0000004800475F
:101B5000711B000000480047711B0000004800474F
:101B6000711B000000480047711B000002030507BD
:101B7000FFF7FEBF01000000020088130300010010
:101B80000400BC000500780006000000070000000B
:101B900008004000000000000100000002000000FA
:101BA0000300000004000000050000000600000023
:101BB000070000000800000000A0064000B006403A
:101BC00000C0064000D0064000A00E4000C0024009
:101BD00000D0024000C00A40640000006400000021
:081BE000640000000100000098
:0400000500001A11CC
:00000001FF
