:10000000A078FF1F4D120000B5100000E51200009F
:10001000E5120000E5120000E512000000000000FB
:10002000000000000000000000000000E5120000D9
:10003000E512000000000000E5120000E5120000DB
:1000400061130000691300007113000079130000B0
:100050008113000089130000911300009913000020
:10006000A1130000A9130000B1130000B913000090
:10007000C1130000C9130000D1130000D913000000
:10008000E1130000B1140000B1140000B11400002D
:10009000B1140000B1140000B1140000B11400004C
:1000A000E9130000F1130000F9130000011400002F
:1000B0000914000011140000B1140000191400000C
:1000C000211400002914000031140000391400002C
:1000D000411400004511000049140000B114000053
:1000E000B1140000B1140000B1140000B1140000FC
:1000F000B1140000B1140000B1140000B1140000EC
:1001000039110000B1140000B1140000B114000056
:10011000B1140000B1140000B1140000B1140000CB
:10012000B1140000B1140000B1140000F11000007F
:10013000B114000009110000B1140000B114000056
:10014000B1140000511400005711000059140000B0
:10015000B1140000B1140000B1140000B11400008B
:10016000B1140000B1140000611400006914000013
:10017000691400006914000069140000691400008B
:10018000691400007114000079140000811400004B
:10019000891400009114000099140000B1140000AB
:1001A000B1140000B1140000B1140000A11400004B
:1001B000B1140000B1140000A9140000A91400003B
:1001C000A9140000A9140000A9140000A91400003B
:1001D000B1140000B1140000B1140000B11400000B
:1001E000B1140000B1140000B1140000B1140000FB
:1001F000B1140000B1140000B1140000B1140000EB
:1003F000B1140000B1140000B1140000FFFFFFFFB2
:10040000FFFFFFFFFFFFFFFFFFFFFFFFFEFFFFFFFD
:10041000012210F01F018A40DFF8801203005BB256
:100420005B0941F823207047F8B504000D00200057
:10043000C0B2002806D0022825D014D3042842D008
:1004400031D350E0DFF85802016851F48061016057
:100450004FF44071662000F02FF94FF4407167208F
:1004600000F02AF940E08E48016851F40061016013
:100470004FF44071812000F01FF94FF4407180204B
:1004800000F01AF930E08648016851F480510160AB
:100490004FF44071632000F00FF94FF44071622077
:1004A00000F00AF920E07E48016851F40051016033
:1004B0004FF44071502000F0FFF84FF4407151208C
:1004C00000F0FAF810E07748016851F480610160AB
:1004D0004FF440714E2000F0EFF84FF440714F2080
:1004E00000F0EAF800E08BE06F492000C0B251F85C
:1004F0002000C07810F0F3002200D2B251F8222080
:10050000D0702000C0B251F8200080782200D2B212
:1005100051F8222090702000C0B2002803D02000A3
:10052000C0B2012804D1614802686148424303E037
:10053000604802685E4842432801B2FBF0F39BB278
:10054000B3F5005F02D341F6FF7003005000B0FB2B
:10055000F5F6B6EB4316202E01D31F20060020002F
:10056000C0B251F82000007810F0E0002700FFB280
:1005700051F8277038702000C0B251F82000007880
:100580001F003F0A17F01F0738432700FFB251F83A
:10059000277038702000C0B251F82000437020004E
:1005A000C0B251F82000807A10F0E0002700FFB2BE
:1005B00051F82770B8722000C0B251F82000877A35
:1005C00016F01F0007432000C0B251F820008772C8
:1005D0002000C0B251F82000007C50F088002700B5
:1005E000FFB251F8277038742000C0B251F82000D3
:1005F000C07850F00C002700FFB251F82710C870E7
:10060000F1BD294A0300DBB252F823301B791B06E7
:10061000F7D50300DBB252F82320D171704770B5D3
:1006200004000D0016003000461E002806D0297870
:100630002000C0B2FFF7E5FF6D1CF4E770BD1A4A59
:100640000300DBB252F823301B799B06F7D5030079
:10065000DBB252F82320D2790A70704710B504003B
:1006600011482100C9B250F82110C97851F0200179
:100670002200D2B250F82200C1702000C0B204287B
:1006800007DA2000C0B240001F3040B2FFF7C0FEC2
:1006900002E04220FFF7BCFE10BD000000E100E0D8
:1006A00034800440288004404400FF1F6800FF1F7E
:1006B00040420F006C00FF1FF0B40200D2B252099A
:1006C00010F01F03144C25684FF400769640354314
:1006D00025600124114D14FA03F61700FFB255F8F6
:1006E0002770C7F8A0601600F6B255F826501E0015
:1006F000F6B245F826100A4D1600F6B255F82660F7
:1007000076699C4036EA04041600F6B255F8265085
:100710006C61F0BC70470000388004402C1300006E
:1007200040130000012210F01F018A408E4903008F
:100730005BB25B0941F823207047012210F01F01D2
:100740008A408A4903005BB25B0941F82320704765
:1007500010B4020052B2002A09D50A01844B0400E9
:1007600064B214F00F04234403F8042C04E00A01DB
:10077000804B040064B21A5510BC704770B47E4CB4
:10078000256801268640354325607C4C1D006D049C
:100790006D0C0600F6B276012644F5821D006D044C
:1007A0006D0C0600F6B276012644F5830500EDB225
:1007B0006D0161510500EDB26D012C442261704C58
:1007C000256855F00105256070BC704738B56D4C43
:1007D0006D4D207805EB00010320FFF730FF2078F6
:1007E000401C20702078012804D12878A52801D049
:1007F000002020702078032804D1002020700120E0
:100800006249087031BD7CB50025280080B20828F7
:1008100027DAA5208DF800006846F12141705C4E72
:10082000290089B236F821100C00210089B2090A8A
:100830008170C470042269460320FFF7F0FE53491B
:1008400008780028FBD0002008704F484178807855
:1008500050EA0120290089B206EB810148806D1C15
:10086000D3E773BD7FB54FF416510320FFF7DCFDCE
:100870000320FFF7F3FE4FF47A7000F0A7F8434E21
:10088000002030700025280080B209281EDAA5203B
:100890008DF80C003F4803A92A0092B230F82220BC
:1008A0004A702A0092B200EB8200408804002000C7
:1008B00080B2000A8870CC70042203A90320FFF7DD
:1008C000AEFE022000F082F86D1CDCE730780028D4
:1008D000FCD0002030702C484178FF29FBD1807873
:1008E000FF28F8D1FFF78FFF72B60120029045F67E
:1008F00020000190002000905223274A2749002021
:1009000000F07CF826495220FFF7D6FE1C4E3068D6
:100910004008400030601848016851F00101016052
:100920000020FFF7FFFE306850F0010030603D20EE
:10093000FFF703FF1B494320FFF7BEFE01213D20C7
:10094000FFF706FF3D20FFF7EDFE62B67FBD80B5E5
:1009500045F62003104A11490020FFF70FFF01BDA3
:10096000012011490870704700E100E080E100E0DB
:1009700018ED00E000E400E024800040009000401A
:100980000C8000409858FF1F9458FF1F7000FF1FF5
:100990002400FF1F0000FF1F7400FF1F91F00F4095
:1009A0000201010002010A009958FF1F00280CD023
:1009B0000E4900220A600E4A106000220D4B1A6098
:1009C00005220A600A68D203FCD5704710B50400FE
:1009D0002000441E002807D0074800684FF47A71B1
:1009E0004843FFF7E3FFF3E710BD000010E000E02D
:1009F00014E000E018E000E06800FF1F2DE9F74F69
:100A000005000E001F000C9CDDF834805FF001092A
:100A10005FF0000A3000800940018DF80000504668
:100A2000C0B2002806D05FFA89F95FEA4909BAF135
:100A3000010AF4E76A48016851F00201016069485F
:100A4000016851F002010160674800212A00D2B21A
:100A5000520181502900C9B24901465000212A00A3
:100A6000D2B252010244116102992A00D2B252015B
:100A70000244116100212A00D2B252010244918045
:100A800000212A00D2B252010244918000212A00A2
:100A9000D2B25201024491824946C9B22A00D2B26E
:100AA00052010244918200212A00D2B25201024432
:100AB000D1802100C9B2090211F4E0612200D2B252
:100AC00012F0070211432A00D2B252010244D1802F
:100AD00041464904490C2A00D2B252010244D18253
:100AE00041464904490C2A00D2B252010244D18342
:100AF0003E490A6832F080020A604946C9B22A00BB
:100B0000D2B252010244916000212A00D2B25201B5
:100B10000244D1600E99C90702D4D8F1000100E067
:100B200000212A00D2B252010244916100212A0020
:100B3000D2B25201024491834CF20A012A00D2B28D
:100B400052010244918300212A00D2B25201104482
:100B5000C1603800C0B24009313050F080002449F3
:100B60002A00D2B2885423493800C0B2FFF7A4FD4E
:100B70003000103810F03F00C0B2C0008DF8020005
:100B80009DF800B09DF8020010EB0B0B5FFA89F99D
:100B90001BEBC900401E8DF801009DF8010059466D
:100BA000C9B288420ED3002200215846C0B200F0DC
:100BB00027F84FF481715846C0B2FFF77DFD1BF155
:100BC000010BEAE70C4901220B6812FA05F0834396
:100BD0000B600A480168AA400A430260BDE8F78F2B
:100BE000408004403C800440009000400080004071
:100BF00000100240000101000C80004024800040F1
:100C0000F0B503001C00E4B2640913F01F053B4873
:100C100006684FF40077A7403E4306603848260038
:100C2000F6B250F826602F00FFB2A4465FFA8CFCA3
:100C300050F82CC0AE465FFA8EFE5CF82EC03CF435
:100C4000E06C46F827C02600F6B250F826602F0068
:100C5000FFB2A4465FFA8CFC50F82C00AC465FFA59
:100C60008CFC50F82C0050F4807046F827000800E7
:100C7000C0B200280ED023482600F6B250F82660F5
:100C800076690127AF403E432700FFB250F82700A6
:100C900046610DE01B482600F6B250F826607669E2
:100CA0000127AF40BE432700FFB250F8270046613E
:100CB0000800C0B2002820D01000C0B200280ED01A
:100CC00010482600F6B250F8266036680127AF407B
:100CD0003E432700FFB250F8270006600DE00948A8
:100CE0002600F6B250F8266036680127AF40BE43B2
:100CF0002700FFB250F827000660F0BD388004409E
:100D00002C130000401300001CB504008DF80440B3
:100D10000120009001AB01AA0121002000F0B0F8F1
:100D20009DF8040016BD10B50400DFF8500181687D
:100D3000096831F00201806801602000C0B2FFF74D
:100D4000E3FF10BD10B50400DFF8300181680968C9
:100D500051F00201806801602000C0B2FFF7D4FFAB
:100D600010BD10B50400200080B2000AC0B2FFF729
:100D7000E9FF2000C0B2FFF7E5FF10BD38B5040061
:100D80000D002000C0B2FFF7CEFF280080B2FFF7B1
:100D9000E8FF31BDF8B504000D0016001F0031005A
:100DA000C9B289B23820FFF7E9FF2100C9B289B280
:100DB0003920FFF7E3FF3900C9B289B23620FFF7C7
:100DC000DDFF2900C9B289B23720FFF7D7FF210024
:100DD000C9B289B22120FFF7D1FF2900C9B289B277
:100DE0002020FFF7CBFF2220FFF79DFFF1BD2DE96B
:100DF000F0410400002600275FF00008B8F1DC0F86
:100E000039DAAF2340460200D2B200214046C0B2D8
:100E1000FFF7C0FF00200500B02D29DABB2000FB42
:100E200005F07FF0AE0190FBF1F1782000FB08F0B7
:100E3000DC2290FBF2F2BC20424304EB02000844A7
:100E400090F8BB0007003900C9B2C908C9B2C9028D
:100E50003800C0B28008C0B251EA4011C7F3C400E4
:100E600001430E00300080B2FFF77BFF6D1CD3E71B
:100E700018F10108C2E7BDE8F0810000401300004E
:100E8000F0B4049D00244B4E4B4F84465FFA8CFC1B
:100E900056F82CC0CCF82C700700FFB256F827701B
:100EA0003F6857F4406784465FFA8CFC56F82CC0C4
:100EB000CCF800700700FFB256F82770FF6ABF0336
:100EC000E1D400276C1EA74236D28C465FFA8CFC18
:100ED0005FEA0C4C1CF47C1CD45D54EA0C0C5CF0F6
:100EE000004C0400E4B256F82440C4F834C00400B6
:100EF000E4B256F82440E46AA403F8D5002B06D0E7
:100F00000400E4B256F82440A46BDC5504E004006D
:100F1000E4B256F82440A46B0400E4B256F824402E
:100F2000E46A54F4003484465FFA8CFC56F82CC012
:100F3000CCF82C407F1CC5E78C465FFA8CFC5FEA3E
:100F40000C4C1CF47C1CD45D54EA0C0C5CF0006C62
:100F50000400E4B256F82440C4F834C00400E4B2FB
:100F600056F82440E46AE400F8D50400E4B256F8E8
:100F70002440E46AA403F8D5002B06D00400E4B2B0
:100F800056F82440A46BDC5504E00400E4B256F8A3
:100F90002440A46B0400E4B256F82440E46A54F4FC
:100FA000003484465FFA8CFC56F82C60F462F0BC86
:100FB000704700005800FF1F00000A1A32484CF228
:100FC000205101804DF6281101804FF4E9702F491E
:100FD000088070475FF09372042054212C4B1A60F4
:100FE0002C4B18702C4B19707047F8B55FF0FF3020
:100FF000274908602948017811F0FD010170017846
:1010000051F020010170264CBA202070254801784B
:1010100011F01F0101702048017811F0BF0101702B
:10102000214D2878C006FBD4287810F00C00082841
:10103000FAD11E4F3E68386850F47F003860FFF7E1
:10104000C9FF3E6028788006FCD528784006FCD58C
:101050001A202070287810F00C000C28FAD128787B
:101060004006FCD5F1BD80B51148016851F470010E
:101070000160FFF7A3FFFFF7B8FF01220121042061
:10108000FFF7BEFD01BD00000E2005400020054019
:1010900044800440044006400540064001400640AC
:1010A00000400640034006400640064000F0014074
:1010B00088ED00E0704730B4002513E050F8042BB1
:1010C000D30744BFA9F101039A18091F042942F864
:1010D000045BFAD213468C0744BF15809B1CC907DA
:1010E00048BF1D7050F8041B0029E7D130BC704781
:1010F00000201B490A68C240D20704D50A680123B0
:1011000083401A430A60704710B5032415480168EC
:10111000E140C90706D501680122A24011430160E0
:10112000FFF715FC10BD80B50F48016851F00101B3
:101130000160FFF715FC01BD0C48016851F0010189
:101140000160704710B50A4C2078800601D5FFF782
:101150003DFB207810BD07480178007870470000FB
:10116000A0900440A0B00440248000400C710340D3
:1011700004D0064004A00E4080B5164916480278F7
:10118000D2B212F01F021032322042430A600868C5
:10119000124A1278D2B212F00702521CB0FBF2F0DF
:1011A000400808600E480A6803681B0F5B1CB2FB0E
:1011B000F3F20C4B1A6009680068C0F30360401C2E
:1011C000B1FBF0F0084908605FF4E1310220FFF75D
:1011D0002BF901BD6400FF1F054006400440064096
:1011E000448004406800FF1F6C00FF1F10B5FFF72C
:1011F000C3FF5FF4E1310220FFF716F9FFF732FB7E
:1012000062B6054C20780028FBD00448FFF7EFFDBC
:1012100000202070F5E700BF9958FF1F7400FF1FE2
:1012200030B450F8041B79B10268436802440830B6
:10123000DC0744BFA9F10104E31852F8045B43F84A
:10124000045B091FF9D1ECE730BC704772B6054862
:10125000054901600A6882F308880448804762B63D
:101260000348004708ED00E00000000067100000A0
:101270005513000010B5074979441831064C7C44D9
:10128000163404E00A68081D114488470146A1424B
:10129000F8D110BD2C0000004C0000004EF6885123
:1012A000CEF20001086840F470000860BFF34F8F71
:1012B000BFF36F8F4FF00070E1EE100A704700002F
:1012C000F7FDFFFF285800007400FF1F000000001A
:1012D00051FFFFFF74000000DC0100000000FF1F51
:1012E00000000000FEE700000120C046002801D0F9
:1012F000FFF7C0FFAFF300800020AFF30080FFF7DF
:1013000075FF00F000F800F001B80000074638460D
:1013100000F002F8FBE7000080B5AFF30080024A5E
:1013200011001820ABBEFBE726000200009004402D
:1013300000A0044000B0044000C0044000D00440BD
:1013400000F00F4040F00F4080F00F40C0F00F4021
:1013500000F10F40AFF30080FFF7A0FFFFF7C4FFDD
:10136000004800472711000000480047B114000062
:1013700000480047B114000000480047B1140000C5
:1013800000480047B114000000480047B1140000B5
:1013900000480047B114000000480047B1140000A5
:1013A00000480047B114000000480047B114000095
:1013B00000480047B114000000480047B114000085
:1013C00000480047B114000000480047B114000075
:1013D00000480047B114000000480047B114000065
:1013E00000480047B114000000480047B114000055
:1013F00000480047B114000000480047B114000045
:1014000000480047B114000000480047B114000034
:1014100000480047B114000000480047B114000024
:1014200000480047B114000000480047B114000014
:1014300000480047B114000000480047B114000004
:1014400000480047B114000000480047B1140000F4
:1014500000480047B114000000480047B1140000E4
:1014600000480047B114000000480047B1140000D4
:1014700000480047B114000000480047B1140000C4
:1014800000480047B114000000480047B1140000B4
:1014900000480047B114000000480047B1140000A4
:1014A00000480047B114000000480047B114000094
:1014B000FFF7FEBF010000000200BC020300320083
:1014C0000400BC00050078000600000007000000D2
:1014D00008002000000000000100000002000000E1
:1014E00003000000040000000500000006000000EA
:1014F000070000000800000000A0064000B0064001
:1015000000C0064000D0064000A00E4000C00240CF
:1015100000D0024000C00A406400000064000000E7
:0815200064000000010000005E
:04000005000013558F
:00000001FF
