:100000009078FF1FC10F0000310E00005910000052
:1000100059100000591000005910000000000000A5
:100020000000000000000000000000005910000067
:100030005910000000000000591000005910000085
:10004000D5100000DD100000E5100000ED100000EC
:10005000F5100000FD100000051100000D1100005A
:10006000151100001D110000251100002D110000C8
:10007000351100003D110000451100004D11000038
:100080005511000025120000251200002512000065
:100090002512000025120000251200002512000084
:1000A0005D110000651100006D1100007511000068
:1000B0007D11000085110000251200008D11000047
:1000C000951100009D110000A5110000AD11000068
:1000D000B5110000C10E0000BD1100002512000086
:1000E0002512000025120000251200002512000034
:1000F0002512000025120000251200002512000024
:10010000B50E000025120000251200002512000087
:100110002512000025120000251200002512000003
:100120002512000025120000251200006D0E0000AF
:1001300025120000850E0000251200002512000087
:1001400025120000C5110000D30E0000CD110000E3
:1001500025120000251200002512000025120000C3
:100160002512000025120000D5110000DD1100004D
:10017000DD110000DD110000DD110000DD110000C7
:10018000DD110000E5110000ED110000F511000087
:10019000FD110000051200000D12000025120000E4
:1001A0002512000025120000251200001512000083
:1001B00025120000251200001D1200001D12000073
:1001C0001D1200001D1200001D1200001D12000073
:1001D0002512000025120000251200002512000043
:1001E0002512000025120000251200002512000033
:1001F0002512000025120000251200002512000023
:1003F000251200002512000025120000FFFFFFFF5C
:10040000FFFFFFFFFFFFFFFFFFFFFFFFFEFFFFFFFD
:10041000012210F01F018A409A4903005BB25B0978
:1004200041F823207047012210F01F018A409649AD
:1004300003005BB25B0941F82320704710B402004F
:1004400052B2002A09D50A01904B040064B214F09C
:100450000F04234403F8042C04E00A018C4B04002D
:1004600064B21A5510BC704770B48A4C25680126D6
:10047000864035432560884C1D006D046D0C0600D8
:10048000F6B276012644F5821D006D046D0C06005F
:10049000F6B276012644F5830500EDB26D01615197
:1004A0000500EDB26D012C4422617C4C256855F0AD
:1004B0000105256070BC704738B5794C794D2078BE
:1004C00005EB0001032000F016FA2078401C207094
:1004D0002078012804D12878A52801D00020207098
:1004E0002078032804D10020207001206E49087074
:1004F00031BD7CB50025280080B2082827DAA52068
:100500008DF800006846F1214170684E290089B2DB
:1005100036F821100C00210089B2090A8170C470DC
:1005200004226946032000F0D6F95F4908780028C4
:10053000FBD0002008705B484178807850EA0120A9
:10054000290089B206EB810148806D1CD3E773BD99
:100550007FB54FF41651032000F0C2F8032000F0DD
:10056000D9F94FF47A7000F013FA4F4E0020307032
:100570000025280080B209281EDAA5208DF80C007D
:100580004B4803A92A0092B230F822204A702A0070
:1005900092B200EB820040880400200080B2000A82
:1005A0008870CC70042203A9032000F094F9022083
:1005B00000F0EEF96D1CDCE730780028FCD000205C
:1005C000307038484178FF29FBD18078FF28F8D176
:1005D000FFF78FFF72B60120029045F620000190D0
:1005E000002000905223334A3349002000F0E8F9FC
:1005F0003249522000F0E6FA284E306840084000A8
:1006000030602448016851F0010101600020FFF7CB
:10061000FFFE306850F0010030603D20FFF703FF1F
:100620002749432000F0CEFA01213D20FFF706FFC5
:100630003D20FFF7EDFE62B67FBD80B545F6200395
:100640001C4A1D490020FFF70FFF01BD01201D4975
:100650000870704780B50021022000F02EF9FF21BC
:10066000022000F02AF90121022000F026F90121E0
:10067000022000F022F945F620020E49022000F087
:100680002AF901BD00E100E080E100E018ED00E0A2
:1006900000E400E024800040009000400C80004016
:1006A0008C58FF1F8858FF1F6400FF1F2400FF1F86
:1006B0000000FF1F6800FF1F91F00F4002010100C2
:1006C00002010A008D58FF1F012210F01F018A400D
:1006D000DFF8801203005BB25B0941F8232070470A
:1006E000F8B504000D002000C0B2002806D0022892
:1006F00025D014D3042842D031D350E0DFF858027B
:10070000016851F4806101604FF44071662000F08F
:1007100059FA4FF44071672000F054FA40E08E48D7
:10072000016851F4006101604FF44071812000F0D4
:1007300049FA4FF44071802000F044FA30E08648D6
:10074000016851F4805101604FF44071632000F062
:1007500039FA4FF44071622000F034FA20E07E480C
:10076000016851F4005101604FF44071502000F0D5
:1007700029FA4FF44071512000F024FA10E0774834
:10078000016851F4806101604FF440714E2000F027
:1007900019FA4FF440714F2000F014FA00E08BE09A
:1007A0006F492000C0B251F82000C07810F0F3006B
:1007B0002200D2B251F82220D0702000C0B251F8ED
:1007C000200080782200D2B251F8222090702000C0
:1007D000C0B2002803D02000C0B2012804D1614873
:1007E00002686148424303E0604802685E48424351
:1007F0002801B2FBF0F39BB2B3F5005F02D341F6E0
:10080000FF7003005000B0FBF5F6B6EB4316202E48
:1008100001D31F2006002000C0B251F8200000784C
:1008200010F0E0002700FFB251F827703870200068
:10083000C0B251F8200000781F003F0A17F01F07D0
:1008400038432700FFB251F8277038702000C0B23B
:1008500051F8200043702000C0B251F82000807A87
:1008600010F0E0002700FFB251F82770B8722000A6
:10087000C0B251F82000877A16F01F00074320000D
:10088000C0B251F8200087722000C0B251F8200099
:10089000007C50F088002700FFB251F827703874B0
:1008A0002000C0B251F82000C07850F00C002700A2
:1008B000FFB251F82710C870F1BD294A0300DBB21E
:1008C00052F823301B791B06F7D50300DBB252F830
:1008D0002320D171704770B504000D001600300060
:1008E000461E002806D029782000C0B2FFF7E5FF99
:1008F0006D1CF4E770BD1A4A0300DBB252F82330D6
:100900001B799B06F7D50300DBB252F82320D2797E
:100910000A70704710B5040011482100C9B250F8A0
:100920002110C97851F020012200D2B250F82200E3
:10093000C1702000C0B2042807DA2000C0B2400015
:100940001F3040B2FFF7C0FE02E04220FFF7BCFEBE
:1009500010BD000000E100E0348004402880044025
:100960004400FF1F5C00FF1F40420F006000FF1F9C
:1009700000280CD00E4900220A600E4A10600022A6
:100980000D4B1A6005220A600A68D203FCD5704735
:1009900010B504002000441E002807D00748006856
:1009A0004FF47A714843FFF7E3FFF3E710BD00000F
:1009B00010E000E014E000E018E000E05C00FF1F41
:1009C0002DE9F74F05000E001F000C9CDDF8348068
:1009D0005FF001095FF0000A3000800940018DF8E6
:1009E00000005046C0B2002806D05FFA89F95FEADD
:1009F0004909BAF1010AF4E76A48016851F00201B5
:100A000001606948016851F00201016067480021F6
:100A10002A00D2B2520181502900C9B24901465080
:100A200000212A00D2B252010244116102992A0027
:100A3000D2B252010244116100212A00D2B2520105
:100A40000244918000212A00D2B2520102449180D6
:100A500000212A00D2B25201024491824946C9B211
:100A60002A00D2B252010244918200212A00D2B25D
:100A700052010244D1802100C9B2090211F4E0619F
:100A80002200D2B212F0070211432A00D2B2520160
:100A90000244D18041464904490C2A00D2B2520195
:100AA0000244D18241464904490C2A00D2B2520183
:100AB0000244D1833E490A6832F080020A60494606
:100AC000C9B22A00D2B252010244916000212A0028
:100AD000D2B252010244D1600E99C90702D4D8F1B2
:100AE000000100E000212A00D2B2520102449161CB
:100AF00000212A00D2B25201024491834CF20A0131
:100B00002A00D2B252010244918300212A00D2B2BB
:100B100052011044C1603800C0B24009313050F079
:100B2000800024492A00D2B2885423493800C0B238
:100B300000F048F83000103810F03F00C0B2C0009C
:100B40008DF802009DF800B09DF8020010EB0B0B31
:100B50005FFA89F91BEBC900401E8DF801009DF872
:100B600001005946C9B288420ED3002200215846DE
:100B7000C0B200F05DF84FF481715846C0B200F089
:100B800021F81BF1010BEAE70C4901220B6812FA6C
:100B900005F083430B600A480168AA400A430260DB
:100BA000BDE8F78F408004403C8004400090004046
:100BB0000080004000100240000101000C80004055
:100BC00024800040F0B40200D2B2520910F01F039A
:100BD000144C25684FF40076964035432560012477
:100BE000114D14FA03F61700FFB255F82770C7F835
:100BF000A0601600F6B255F826501E00F6B245F871
:100C000026100A4D1600F6B255F8266076699C400B
:100C100036EA04041600F6B255F826506C61F0BCB2
:100C20007047000038800440A0100000B41000009D
:100C3000F0B503001C00E4B2640913F01F053B4843
:100C400006684FF40077A7403E4306603848260008
:100C5000F6B250F826602F00FFB2A4465FFA8CFC73
:100C600050F82CC0AE465FFA8EFE5CF82EC03CF405
:100C7000E06C46F827C02600F6B250F826602F0038
:100C8000FFB2A4465FFA8CFC50F82C00AC465FFA29
:100C90008CFC50F82C0050F4807046F827000800B7
:100CA000C0B200280ED023482600F6B250F82660C5
:100CB00076690127AF403E432700FFB250F8270076
:100CC00046610DE01B482600F6B250F826607669B2
:100CD0000127AF40BE432700FFB250F8270046610E
:100CE0000800C0B2002820D01000C0B200280ED0EA
:100CF00010482600F6B250F8266036680127AF404B
:100D00003E432700FFB250F8270006600DE0094877
:100D10002600F6B250F8266036680127AF40BE4381
:100D20002700FFB250F827000660F0BD388004406D
:100D3000A0100000B410000032484CF22051018095
:100D40004DF6281101804FF4E9702F490880704753
:100D50005FF09372042054212C4B1A602C4B1870B6
:100D60002C4B19707047F8B55FF0FF3027490860C9
:100D70002948017811F0FD010170017851F020013E
:100D80000170264CBA2020702548017811F01F010F
:100D900001702048017811F0BF010170214D2878C1
:100DA000C006FBD4287810F00C000828FAD11E4F9A
:100DB0003E68386850F47F003860FFF7C9FF3E6036
:100DC00028788006FCD528784006FCD51A202070AB
:100DD000287810F00C000C28FAD128784006FCD5B1
:100DE000F1BD80B51148016851F470010160FFF751
:100DF000A3FFFFF7B8FF012201210420FFF718FF2E
:100E000001BD00000E200540002005404480044044
:100E100004400640054006400140064000400640B0
:100E2000034006400640064000F0014088ED00E027
:100E3000704730B4002513E050F8042BD30744BFAB
:100E4000A9F101039A18091F042942F8045BFAD298
:100E500013468C0744BF15809B1CC90748BF1D70F3
:100E600050F8041B0029E7D130BC704700201B4913
:100E70000A68C240D20704D50A68012383401A4396
:100E80000A60704710B5032415480168E140C9079E
:100E900006D501680122A24011430160FFF7CDFB96
:100EA00010BD80B50F48016851F001010160FFF7E6
:100EB000CDFB01BD0C48016851F001010160704794
:100EC00010B50A4C2078800601D5FFF7F5FA207896
:100ED00010BD07480178007870470000A0900440DA
:100EE000A0B00440248000400C71034004D00640B0
:100EF00004A00E4080B5164916480278D2B212F00E
:100F00001F021032322042430A600868124A1278E7
:100F1000D2B212F00702521CB0FBF2F04008086097
:100F20000E480A6803681B0F5B1CB2FBF3F20C4B04
:100F30001A6009680068C0F30360401CB1FBF0F060
:100F4000084908605FF4E1310220FFF7C9FB01BDE9
:100F50005800FF1F054006400440064044800440FE
:100F60005C00FF1F6000FF1F80B5FFF7C3FF5FF449
:100F7000E1310220FFF7B4FBFFF7EAFA62B6044959
:100F800008780028FBD000200870FFF763FBF6E725
:100F90008D58FF1F30B450F8041B79B102684368C4
:100FA00002440830DC0744BFA9F10104E31852F8F9
:100FB000045B43F8045B091FF9D1ECE730BC7047D0
:100FC00072B60548054901600A6882F3088804483A
:100FD000804762B60348004708ED00E000000000CB
:100FE000E30D0000C910000010B50749794418311D
:100FF000064C7C44163404E00A68081D11448847F6
:101000000146A142F8D110BD2C0000004C000000A8
:101010004EF68851CEF20001086840F47000086076
:10102000BFF34F8FBFF36F8F4FF00070E1EE100AE8
:1010300070470000FFFDFFFF285800006800FF1FF9
:101040000000000051FFFFFF68000000DC0100000D
:101050000000FF1F00000000FEE700000120C04666
:10106000002801D0FFF7C0FFAFF300800020AFF3EE
:101070000080FFF779FF00F000F800F001B80000F1
:101080000746384600F002F8FBE7000080B5AFF3F2
:101090000080024A11001820ABBEFBE726000200C8
:1010A0000090044000A0044000B0044000C0044090
:1010B00000D0044000F00F4040F00F4080F00F409F
:1010C000C0F00F4000F10F40AFF30080FFF7A0FF2A
:1010D000FFF7C4FF00480047A30E00000048004788
:1010E0002512000000480047251200000048004774
:1010F0002512000000480047251200000048004764
:101100002512000000480047251200000048004753
:101110002512000000480047251200000048004743
:101120002512000000480047251200000048004733
:101130002512000000480047251200000048004723
:101140002512000000480047251200000048004713
:101150002512000000480047251200000048004703
:1011600025120000004800472512000000480047F3
:1011700025120000004800472512000000480047E3
:1011800025120000004800472512000000480047D3
:1011900025120000004800472512000000480047C3
:1011A00025120000004800472512000000480047B3
:1011B00025120000004800472512000000480047A3
:1011C0002512000000480047251200000048004793
:1011D0002512000000480047251200000048004783
:1011E0002512000000480047251200000048004773
:1011F0002512000000480047251200000048004763
:101200002512000000480047251200000048004752
:101210002512000000480047251200000048004742
:1012200025120000FFF7FEBF010000000200BC0213
:10123000030032000400BC00050078000600000036
:10124000070000000800200000000000010000006E
:101250000200000003000000040000000500000080
:1012600006000000070000000800000000A0064083
:1012700000B0064000C0064000D0064000A00E406E
:101280006400000064000000640000000100000031
:04000005000010C91E
:00000001FF
